{
  "_format": "hh-sol-artifact-1",
  "contractName": "upload",
  "sourceName": "contracts/upload.sol",
  "abi": [
    {
      "inputs": [
        {
          "internalType": "address",
          "name": "_user",
          "type": "address"
        },
        {
          "internalType": "string",
          "name": "url",
          "type": "string"
        }
      ],
      "name": "add",
      "outputs": [],
      "stateMutability": "nonpayable",
      "type": "function"
    },
    {
      "inputs": [
        {
          "internalType": "address",
          "name": "user",
          "type": "address"
        }
      ],
      "name": "allow",
      "outputs": [],
      "stateMutability": "nonpayable",
      "type": "function"
    },
    {
      "inputs": [
        {
          "internalType": "address",
          "name": "user",
          "type": "address"
        }
      ],
      "name": "disallow",
      "outputs": [],
      "stateMutability": "nonpayable",
      "type": "function"
    },
    {
      "inputs": [
        {
          "internalType": "address",
          "name": "_user",
          "type": "address"
        }
      ],
      "name": "dispaly",
      "outputs": [
        {
          "internalType": "string[]",
          "name": "",
          "type": "string[]"
        }
      ],
      "stateMutability": "view",
      "type": "function"
    },
    {
      "inputs": [],
      "name": "shareAccess",
      "outputs": [
        {
          "components": [
            {
              "internalType": "address",
              "name": "user",
              "type": "address"
            },
            {
              "internalType": "bool",
              "name": "access",
              "type": "bool"
            }
          ],
          "internalType": "struct upload.access[]",
          "name": "",
          "type": "tuple[]"
        }
      ],
      "stateMutability": "view",
      "type": "function"
    }
  ],
  "bytecode": "0x608060405234801561001057600080fd5b506112c6806100206000396000f3fe608060405234801561001057600080fd5b50600436106100575760003560e01c806336d6da551461005c578063a9ed9cb814610078578063bc8bef8114610094578063d57f3d51146100b2578063ff9913e8146100e2575b600080fd5b61007660048036038101906100719190610de2565b6100fe565b005b610092600480360381019061008d9190610e3e565b61017a565b005b61009c61039d565b6040516100a99190610f73565b60405180910390f35b6100cc60048036038101906100c79190610e3e565b6104a6565b6040516100d991906110df565b60405180910390f35b6100fc60048036038101906100f79190610e3e565b6106bc565b005b6000808373ffffffffffffffffffffffffffffffffffffffff1673ffffffffffffffffffffffffffffffffffffffff16815260200190815260200160002081908060018154018082558091505060019003906000526020600020016000909190919091509080519060200190610175929190610b87565b505050565b6000600160003373ffffffffffffffffffffffffffffffffffffffff1673ffffffffffffffffffffffffffffffffffffffff16815260200190815260200160002060008373ffffffffffffffffffffffffffffffffffffffff1673ffffffffffffffffffffffffffffffffffffffff16815260200190815260200160002060006101000a81548160ff02191690831515021790555060005b600260003373ffffffffffffffffffffffffffffffffffffffff1673ffffffffffffffffffffffffffffffffffffffff16815260200190815260200160002080549050811015610399578173ffffffffffffffffffffffffffffffffffffffff16600260003373ffffffffffffffffffffffffffffffffffffffff1673ffffffffffffffffffffffffffffffffffffffff16815260200190815260200160002082815481106102c4576102c3611101565b5b9060005260206000200160000160009054906101000a900473ffffffffffffffffffffffffffffffffffffffff1673ffffffffffffffffffffffffffffffffffffffff161415610386576000600260003373ffffffffffffffffffffffffffffffffffffffff1673ffffffffffffffffffffffffffffffffffffffff168152602001908152602001600020828154811061036157610360611101565b5b9060005260206000200160000160146101000a81548160ff0219169083151502179055505b808061039190611169565b915050610212565b5050565b6060600260003373ffffffffffffffffffffffffffffffffffffffff1673ffffffffffffffffffffffffffffffffffffffff168152602001908152602001600020805480602002602001604051908101604052809291908181526020016000905b8282101561049d578382906000526020600020016040518060400160405290816000820160009054906101000a900473ffffffffffffffffffffffffffffffffffffffff1673ffffffffffffffffffffffffffffffffffffffff1673ffffffffffffffffffffffffffffffffffffffff1681526020016000820160149054906101000a900460ff161515151581525050815260200190600101906103fe565b50505050905090565b60603373ffffffffffffffffffffffffffffffffffffffff168273ffffffffffffffffffffffffffffffffffffffff1614806105685750600160008373ffffffffffffffffffffffffffffffffffffffff1673ffffffffffffffffffffffffffffffffffffffff16815260200190815260200160002060003373ffffffffffffffffffffffffffffffffffffffff1673ffffffffffffffffffffffffffffffffffffffff16815260200190815260200160002060009054906101000a900460ff165b6105a7576040517f08c379a000000000000000000000000000000000000000000000000000000000815260040161059e9061120f565b60405180910390fd5b6000808373ffffffffffffffffffffffffffffffffffffffff1673ffffffffffffffffffffffffffffffffffffffff168152602001908152602001600020805480602002602001604051908101604052809291908181526020016000905b828210156106b15783829060005260206000200180546106249061125e565b80601f01602080910402602001604051908101604052809291908181526020018280546106509061125e565b801561069d5780601f106106725761010080835404028352916020019161069d565b820191906000526020600020905b81548152906001019060200180831161068057829003601f168201915b505050505081526020019060010190610605565b505050509050919050565b60018060003373ffffffffffffffffffffffffffffffffffffffff1673ffffffffffffffffffffffffffffffffffffffff16815260200190815260200160002060008373ffffffffffffffffffffffffffffffffffffffff1673ffffffffffffffffffffffffffffffffffffffff16815260200190815260200160002060006101000a81548160ff021916908315150217905550600360003373ffffffffffffffffffffffffffffffffffffffff1673ffffffffffffffffffffffffffffffffffffffff16815260200190815260200160002060008273ffffffffffffffffffffffffffffffffffffffff1673ffffffffffffffffffffffffffffffffffffffff16815260200190815260200160002060009054906101000a900460ff16156109f35760005b600260003373ffffffffffffffffffffffffffffffffffffffff1673ffffffffffffffffffffffffffffffffffffffff168152602001908152602001600020805490508110156109ed578173ffffffffffffffffffffffffffffffffffffffff16600260003373ffffffffffffffffffffffffffffffffffffffff1673ffffffffffffffffffffffffffffffffffffffff168152602001908152602001600020828154811061089457610893611101565b5b9060005260206000200160000160009054906101000a900473ffffffffffffffffffffffffffffffffffffffff1673ffffffffffffffffffffffffffffffffffffffff1614156109da57600260003373ffffffffffffffffffffffffffffffffffffffff1673ffffffffffffffffffffffffffffffffffffffff16815260200190815260200160002060405180604001604052808473ffffffffffffffffffffffffffffffffffffffff168152602001600115158152509080600181540180825580915050600190039060005260206000200160009091909190915060008201518160000160006101000a81548173ffffffffffffffffffffffffffffffffffffffff021916908373ffffffffffffffffffffffffffffffffffffffff16021790555060208201518160000160146101000a81548160ff02191690831515021790555050505b80806109e590611169565b9150506107e2565b50610b84565b600260003373ffffffffffffffffffffffffffffffffffffffff1673ffffffffffffffffffffffffffffffffffffffff16815260200190815260200160002060405180604001604052808373ffffffffffffffffffffffffffffffffffffffff168152602001600115158152509080600181540180825580915050600190039060005260206000200160009091909190915060008201518160000160006101000a81548173ffffffffffffffffffffffffffffffffffffffff021916908373ffffffffffffffffffffffffffffffffffffffff16021790555060208201518160000160146101000a81548160ff02191690831515021790555050506001600360003373ffffffffffffffffffffffffffffffffffffffff1673ffffffffffffffffffffffffffffffffffffffff16815260200190815260200160002060008373ffffffffffffffffffffffffffffffffffffffff1673ffffffffffffffffffffffffffffffffffffffff16815260200190815260200160002060006101000a81548160ff0219169083151502179055505b50565b828054610b939061125e565b90600052602060002090601f016020900481019282610bb55760008555610bfc565b82601f10610bce57805160ff1916838001178555610bfc565b82800160010185558215610bfc579182015b82811115610bfb578251825591602001919060010190610be0565b5b509050610c099190610c0d565b5090565b5b80821115610c26576000816000905550600101610c0e565b5090565b6000604051905090565b600080fd5b600080fd5b600073ffffffffffffffffffffffffffffffffffffffff82169050919050565b6000610c6982610c3e565b9050919050565b610c7981610c5e565b8114610c8457600080fd5b50565b600081359050610c9681610c70565b92915050565b600080fd5b600080fd5b6000601f19601f8301169050919050565b7f4e487b7100000000000000000000000000000000000000000000000000000000600052604160045260246000fd5b610cef82610ca6565b810181811067ffffffffffffffff82111715610d0e57610d0d610cb7565b5b80604052505050565b6000610d21610c2a565b9050610d2d8282610ce6565b919050565b600067ffffffffffffffff821115610d4d57610d4c610cb7565b5b610d5682610ca6565b9050602081019050919050565b82818337600083830152505050565b6000610d85610d8084610d32565b610d17565b905082815260208101848484011115610da157610da0610ca1565b5b610dac848285610d63565b509392505050565b600082601f830112610dc957610dc8610c9c565b5b8135610dd9848260208601610d72565b91505092915050565b60008060408385031215610df957610df8610c34565b5b6000610e0785828601610c87565b925050602083013567ffffffffffffffff811115610e2857610e27610c39565b5b610e3485828601610db4565b9150509250929050565b600060208284031215610e5457610e53610c34565b5b6000610e6284828501610c87565b91505092915050565b600081519050919050565b600082825260208201905092915050565b6000819050602082019050919050565b610ea081610c5e565b82525050565b60008115159050919050565b610ebb81610ea6565b82525050565b604082016000820151610ed76000850182610e97565b506020820151610eea6020850182610eb2565b50505050565b6000610efc8383610ec1565b60408301905092915050565b6000602082019050919050565b6000610f2082610e6b565b610f2a8185610e76565b9350610f3583610e87565b8060005b83811015610f66578151610f4d8882610ef0565b9750610f5883610f08565b925050600181019050610f39565b5085935050505092915050565b60006020820190508181036000830152610f8d8184610f15565b905092915050565b600081519050919050565b600082825260208201905092915050565b6000819050602082019050919050565b600081519050919050565b600082825260208201905092915050565b60005b83811015610ffb578082015181840152602081019050610fe0565b8381111561100a576000848401525b50505050565b600061101b82610fc1565b6110258185610fcc565b9350611035818560208601610fdd565b61103e81610ca6565b840191505092915050565b60006110558383611010565b905092915050565b6000602082019050919050565b600061107582610f95565b61107f8185610fa0565b93508360208202850161109185610fb1565b8060005b858110156110cd57848403895281516110ae8582611049565b94506110b98361105d565b925060208a01995050600181019050611095565b50829750879550505050505092915050565b600060208201905081810360008301526110f9818461106a565b905092915050565b7f4e487b7100000000000000000000000000000000000000000000000000000000600052603260045260246000fd5b7f4e487b7100000000000000000000000000000000000000000000000000000000600052601160045260246000fd5b6000819050919050565b60006111748261115f565b91507fffffffffffffffffffffffffffffffffffffffffffffffffffffffffffffffff8214156111a7576111a6611130565b5b600182019050919050565b600082825260208201905092915050565b7f796f7520646f6e27742068617665206163636573730000000000000000000000600082015250565b60006111f96015836111b2565b9150611204826111c3565b602082019050919050565b60006020820190508181036000830152611228816111ec565b9050919050565b7f4e487b7100000000000000000000000000000000000000000000000000000000600052602260045260246000fd5b6000600282049050600182168061127657607f821691505b6020821081141561128a5761128961122f565b5b5091905056fea2646970667358221220b9c0034935b5505b86b72dc32edee05a628f2f94b6f1905143e3c12f1a28175e64736f6c63430008090033",
  "linkReferences": {},
  "deployedLinkReferences": {}
}